:020000040800F2
:10000000E8D10224790300082F3C0008A33B000834
:100010002D3C000841070008554A00080000000078
:10002000000000000000000000000000B73D0008D4
:10003000890B000800000000313C0008B93D0008B1
:100040009303000893030008930300089303000838
:100050009303000893030008930300089303000828
:100060009303000893030008930300089303000818
:100070009303000893030008930300089303000808
:1000800093030008930300089303000893030008F8
:1000900093030008930300089303000893030008E8
:1000A00093030008930300089303000893030008D8
:1000B00093030008930300089303000893030008C8
:1000C00093030008930300089303000893030008B8
:1000D000353C0008114A0008930300089303000808
:1000E0009303000893030008000000009303000836
:1000F0009303000893030008930300089303000888
:100100009303000893030008930300089303000877
:100110009303000893030008930300089303000867
:1001200093030008930300089303000845070008A1
:100130009303000893030008930300089303000847
:1001400000000000000000000000000000000000AF
:100150009303000893030008930300089303000827
:100160009303000893030008930300089303000817
:1001700093030008930300089303000800000000A5
:1001800093030008930300089303000893030008F7
:1001900093030008930300089303000893030008E7
:1001A00093030008930300089303000893030008D7
:1001B00093030008930300089303000893030008C7
:1001C00093030008930300089303000893030008B7
:1001D00093030008930300089303000893030008A7
:1001E0009303000893030008930300089303000897
:1001F0009303000893030008930300089303000887
:100200009303000893030008930300089303000876
:100210009303000893030008930300089303000866
:1002200093030008930300089303000800000000F4
:1002300093030008930300080000000093030008E4
:100240009303000893030008930300089303000836
:100250009303000893030008930300089303000826
:100260009303000893030008930300089303000816
:1002700093030008930300089303000800000000A4
:100280009303000893030008930300080000000094
:10029000000000009303000800F002F800F05CF892
:1002A0000AA090E8000C82448344AAF10107DA45D1
:1002B00001D100F051F8AFF2090EBAE80F0013F0C7
:1002C000010F18BFFB1A43F001031847582E040012
:1002D000782E04000A444FF0000C10F8013B13F094
:1002E000070408BF10F8014B1D1108BF10F8015B8F
:1002F000641E05D010F8016B641E01F8016BF9D182
:1003000013F0080F1EBF10F8014BAD1C0C1B09D1D8
:100310006D1E58BF01F801CBFAD505E014F8016B4A
:1003200001F8016B6D1EF9D59142D6D370470000DC
:100330000023002400250026103A28BF78C1FBD8EE
:10034000520728BF30C148BF0B6070471FB529F066
:1003500038FB1FBD10B510BD00F0C0F91146FFF706
:10036000F5FF24F0B5FA00F0DEF903B4FFF7F2FF71
:1003700003BC06F099F90000094880470948004786
:10038000FEE7FEE7FEE7FEE7FEE7FEE7FEE7FEE745
:10039000FEE7FEE704480549054A064B70470000A2
:1003A000E53D000899020008E8C50224E8D10224CE
:1003B000E8C90224E8C90224704753EA020C00F09D
:1003C00069802DE9F04B4FF00006002B1FBFB3FAF8
:1003D00083F503FA05F424FA05F65E4012BF1643CE
:1003E000B2FA82F502FA05F4C5F120051EBF22FA21
:1003F00005FC44EA0C04203556EA044C4FEA144448
:1004000018BF641C4FF000084FF00009904271EBD8
:10041000030C39D3002919BFB1FA81F701FA07F6A5
:10042000B0FA80F700FA07F6C7F120071EBF20FADE
:1004300007FC46EA0C062037B6FBF4FCA7EB0507E1
:10044000103F07F01F0BCBF120060CFA0BFB2CFA28
:1004500006F644BFB3460026202FA4BF5E464FF0E9
:10046000000B5BEA060C08BF4FF0010B19EB0B0900
:10047000ABFB027C48EB0608C01B06FB02CC0BFB67
:1004800003CC71EB0C01C1E70B46024641464846DE
:10049000BDE8F08B13B54FF000004FF00001AFF353
:1004A0000080BDE81C40704740EA0103024630B5B9
:1004B0009B0710D14FF0013400E008C208C91D1B92
:1004C0009D4315EAC41FF8D013F0FF0102F8011B89
:1004D0000DD01B0AF8E711F8013B002B02F8013B95
:1004E00005D011F8013B002B02F8013BF3D130BDE0
:1004F00010B5431C02E010F8011B71B18107FAD15D
:100500004FF0013202C88C1A8C4314EAC211F9D0A0
:10051000C01A0A0603D0C01E10BDC01A10BD0A04BE
:1005200001D0801E10BD0902FCD0401E10BD032A60
:1005300040F2308010F0030C00F0158011F8013B00
:10054000BCF1020F624498BF11F801CB00F8013BE7
:1005500038BF11F8013BA2F1040298BF00F801CBAB
:1005600038BF00F8013B11F0030300F02580083A82
:10057000C0F0088051F8043B083A51F804CBA0E8D9
:100580000810F5E7121D5CBF51F8043B40F8043B2E
:10059000AFF30080D20724BF11F8013B11F801CB63
:1005A00048BF11F8012B24BF00F8013B00F801CB34
:1005B00048BF00F8012B704710B5203AC0F00B80FF
:1005C000B1E81850203AA0E81850B1E81850A0E857
:1005D0001850BFF4F5AF5FEA027C24BFB1E81850B1
:1005E000A0E8185044BF18C918C0BDE810405FEA21
:1005F000827C24BF51F8043B40F8043B08BF70479D
:10060000D20728BF31F8023B48BF11F8012B28BFA1
:1006100020F8023B48BF00F8012B70474FF0000262
:1006200000B5134694469646203922BFA0E80C50E8
:10063000A0E80C50B1F12001BFF4F7AF090728BFC3
:10064000A0E80C5048BF0CC05DF804EB890028BF3F
:1006500040F8042B08BF704748BF20F8022B11F068
:10066000804F18BF00F8012B704700004FF0013C8D
:1006700050F8042B51F8043B9A4215D1A2EB0C031D
:10068000934313EACC130BD150F8042B51F8043BDD
:100690009A4209D1A2EB0C03934313EACC13E7D09F
:1006A0004FF00000704700BFD01A01BAB1FA81F1D3
:1006B00001F0180122FA01F0CB40C1F12001DBB2B8
:1006C000C0B2C01A2CFA01F3D11A914311EAC31136
:1006D000E6D170477047704770477047754600F025
:1006E0002BF8AE4605006946534620F007008546C4
:1006F00018B020B5FFF74EFEBDE820404FF00006D1
:100700004FF000074FF000084FF0000B21F00701F9
:10071000AC46ACE8C009ACE8C009ACE8C009ACE83C
:10072000C0098D46704710B50446AFF300802046DF
:10073000BDE81040FFF719BE0048704788C5022485
:10074000FEE70000014800F015BD0000080A012482
:10075000294A016891423AD0274A1832914236D04C
:10076000254A3032914232D0234A483291422ED02B
:10077000214A603291422AD01F4A7832914226D0D3
:100780001D4A9032914222D01B4AA83291421ED07B
:100790001A4A91421BD0194A1832914217D0174A6F
:1007A0003032914213D0154A483291420FD0134A49
:1007B000603291420BD0114A7832914207D00F4AF1
:1007C0009032914203D00D4AA832914211D1CAB25F
:1007D0001823103AB2FBF3F26FF30901032A02F077
:1007E0000703074AD25CC26500D9091D8165084626
:1007F000704721F0FF01F9E71000024010040240A9
:10080000DC99020830B5224A012301689142CAB23C
:100810001BD01F4C1434A14217D01D4C2834A142C8
:1008200013D01B4C3C34A1420FD0194C5034A14280
:100830000BD0174C6434A14207D0154C7834A14238
:1008400003D0134C8C34A1420CD11421114C083A22
:10085000B2FBF1F10F4A803201F01F0504EB810178
:10086000AB4010E00C4D1824103A0D44B2FBF4F1EB
:10087000A82D00D80831094A01F01F0402EB8101BC
:10088000064AA3408032603080E80E0030BD000090
:100890000854025800580258F0FBFDBF00080240FF
:1008A00010B50279531E072B2DD8174C0168A142B1
:1008B0001BD0154C1434A14217D0134C2834A1423C
:1008C00013D0114C3C34A1420FD00F4C5034A142F4
:1008D0000BD00D4C6434A14207D00B4C7834A142AC
:1008E00003D0094C8C34A14203D10849074C443150
:1008F00002E00749064C443104EB8202C0E91B21A7
:1009000001219940416710BD08540258FC58025813
:10091000FC08024010B583694FF0C074826A01463A
:10092000002053B1B3F5005F15D072B1012A0CD08D
:10093000022A0AD0032A09D104E01AB1012A06D0FA
:10094000022A03D1C96AC90100D5012010BDC96AB4
:10095000A142FAD010BD002AF7D0012AF2D0022A13
:10096000F3D0032AF3D010BD2DE9F04F804E804F15
:10097000DFF8FC911836DFF8F8A148370468856D78
:100980000AF1300ADFF8ECB14C45DFF8ECC1DFF8D2
:10099000ECE16DD0B4426BD0544569D0BC4267D015
:1009A000DFF8D081A8F11808444561D05C455FD0DC
:1009B00064455DD074455BD0DFF8C481444557D0B1
:1009C000DFF8BC8108F11808444551D0DFF8B08148
:1009D00008F1300844454BD0DFF8A48108F14808FD
:1009E000444545D0DFF8988108F1600844453FD080
:1009F000DFF88C8108F17808444539D0DFF8808130
:100A000008F19008444533D0DFF8748108F1A80854
:100A100044452DD0DFF86C81444529D0DFF864814E
:100A200008F11408444523D0DFF8588108F128085C
:100A300044451DD0DFF84C8108F13C08444517D0EF
:100A4000DFF8408108F15008444511D0DFF83481C7
:100A500008F1640844450BD0DFF8288108F17808D4
:100A6000444505D0DFF81C8108F18C08444509D1C4
:100A7000D0E91948C4F80480C46E1CB1D0E91C4800
:100A8000C4F8048004684C452ED0B4422CD05445A0
:100A90002AD0BC4228D0374E183EB44224D05C4500
:100AA00022D0644520D074451ED0354EB4421BD0B0
:100AB000334E1836B44217D0314E3036B44213D0CC
:100AC0002F4E4836B4420FD02D4E6036B4420BD074
:100AD0002B4E7836B44207D0294E9036B44203D01C
:100AE000274EA836B44215D190F85C603F2406F03A
:100AF0001F06B440AC600468256825F48025256095
:100B00002EE09A600068C160BDE8F08F99600068CF
:100B1000C260F9E71B4EB4421BD01A4E1436B442E1
:100B200017D0184E2836B44213D0164E3C36B44275
:100B30000FD0144E5036B4420BD0124E6436B4422D
:100B400007D0104E7836B44203D00E4E8C36B442E5
:100B5000DAD190F85C60012406F01F06B4406C60A6
:100B6000046863608368402B0368CFD1C9E7000045
:100B70001000024088000240A0000240B80002407D
:100B80001004024008540258704700002DE9F84F45
:100B9000044601F0BDFA00903CB194F835000228FB
:100BA00006D0802161650020E4E00120BDE8F88FD7
:100BB000C74DC74EC649183520683036DFF8148354
:100BC000DFF814938842DFF814A3DFF814B32ED0B3
:100BD000A8422CD0B0422AD0404528D0484526D043
:100BE000504524D0584522D0BD4A183290421ED0DC
:100BF000BC4A90421BD0BB4A1832904217D0B94A27
:100C00003032904213D0B74A483290420FD0B54AA2
:100C1000603290420BD0B34A7832904207D0B14A4A
:100C20009032904203D0AF4AA832904209D1026874
:100C300022F01E0202602068426922F080024261B6
:100C400003E0026822F00E02026027688F423846F5
:100C50004DD0A8424BD0B04249D0404547D048453E
:100C600045D0504543D0584541D09D4A1832904216
:100C70003DD09C4A90423AD09A4A1832904236D09F
:100C8000984A3032904232D0964A483290422ED022
:100C9000944A603290422AD0924A7832904226D0CA
:100CA000904A9032904222D08E4AA83290421ED072
:100CB0008D4A90421BD08C4A1432904217D08A4AF7
:100CC0002832904213D0884A3C3290420FD0864A54
:100CD000503290420BD0844A6432904207D0824A0C
:100CE0007832904203D0804A8C32974204D1206EF1
:100CF000026822F48072026075492068884228D018
:100D0000A84226D0B04224D0404522D0484520D029
:100D100050451ED058451CD071491831884218D012
:100D20007049884215D06F491831884211D06D49F9
:100D3000303188420DD06B494831884209D0694929
:100D40006031884205D067497831884201D06549D1
:100D50009031016821F0010101600EE001F0D8F945
:100D60000099401A052808D9202262650321002035
:100D700084F8351084F8340017E73868C007EDD1DF
:100D8000534A0121206890422ED0A8422CD0B04274
:100D90002AD0404528D0484526D0504524D0584533
:100DA00022D04F4B183398421ED04E4B98421BD046
:100DB0004C4B1833984217D04A4B3033984213D0DB
:100DC000484B483398420FD0464B603398420BD083
:100DD000444B7833984207D0424B9033984203D02B
:100DE000404BA833984208D194F85C703F23A06D23
:100DF00007F01F07BB40836007E094F85C30A06DEC
:100E000003F01F0301FA03F34360206890424DD0C2
:100E1000A8424BD0B04249D0404547D0484545D084
:100E2000504543D0584541D02D4A183290423DD0CC
:100E30002C4A90423AD02B4A1832904236D0294A56
:100E40003032904232D0274A483290422ED0254A42
:100E5000603290422AD0234A7832904226D0214AEA
:100E60009032904222D01F4AA83290421ED01E4A91
:100E700090421BD01C4A1432904217D01A4A283292
:100E8000904213D0184A3C3290420FD0164A50324A
:100E900090420BD0144A6432904207D0124A783202
:100EA000904203D0104A8C3290420BD1D4E91902FF
:100EB0004260E06E30B1026822F480720260D4E9D0
:100EC0001C024260002084F8351084F834006DE67E
:100ED00010000240580002407000024088000240AA
:100EE000A000024010040240085402582DE9F05FAF
:100EF00028B190F83510022904D0802141650120E5
:100F0000BDE8F09F904C904B0168183C18338E4A16
:100F1000DFF83C92A1428D4CDFF838E28E4FDFF8CB
:100F20003CB2DFF83CA28F4D8F4E31D091422FD092
:100F300099422DD0A1422BD0494529D0714527D0C7
:100F4000B94225D0DFF810C20CF1180C61451FD052
:100F5000DFF808C2ACF1600C614519D0DFF8FCC1C4
:100F6000ACF1480C614513D0DFF8F0C1ACF1300CA6
:100F700061450DD0DFF8E4C1ACF1180C614507D034
:100F8000594505D0514503D0A94201D0B1422CD1D9
:100F9000DFF8B4C14FF0040880F83580ACF1180CCC
:100FA00061451DD091421BD0994219D0A14217D062
:100FB000494515D0714513D0B94211D06648183053
:100FC00081420DD065486038814209D06348483875
:100FD000814205D061483038814201D05F481838DD
:100FE000086820F001000860ABE0D1F800C02CF0E8
:100FF0000E08DFF854C1C1F80080ACF1180C01688C
:10100000614527D0914225D0994223D0A14221D0D9
:1010100049451FD071451DD0B9421BD0DFF838C1FA
:101020000CF1180C614515D0DFF830C1ACF1600C43
:1010300061450FD0DFF824C1ACF1480C614509D0FF
:10104000DFF818C1ACF1300C614503D0DFF80CC1FA
:10105000ACF1180CD1F800C02CF0010CC1F800C0A4
:10106000DFF8E4804FF0010C0168A8F11808414551
:1010700046D0914244D0994242D0A14240D0494505
:101080003ED071453CD0B9423AD0334A18329142F1
:1010900036D0324A603A914232D0304A483A914290
:1010A0002ED02E4A303A91422AD02C4A183A9142F8
:1010B00026D0594524D0514522D0A94220D0B14252
:1010C0001ED02A4A91421BD0284A1432914217D08E
:1010D000264A2832914213D0244A3C3291420FD002
:1010E000224A503291420BD0204A6432914207D0BA
:1010F0001E4A7832914203D01C4A8C32914218D158
:10110000016E0A6822F480720A6090F85C20816D9A
:1011100002F01F020CFA02F24A60D0E919124A608A
:10112000C16E31B10A6822F480720A60D0E91C12E3
:101130004A600022016D80F835C080F8342001B18A
:1011400088470020DCE600002800024058000240EA
:101150007000024088000240A0000240700402407B
:1011600088040240A0040240B80402400854025817
:10117000406D70472DE9FC5F0446F74E0020DFF814
:10118000D88300904FF41652F44808F11808A56D62
:10119000DFF8C493DFF8C0A3016809F130092068C3
:1011A0000AF1480AB1FBF2F1B04201912F68D5F87B
:1011B00000C0DFF8ACB335D04146884232D0484554
:1011C00030D050452ED058452CD0E54918318842B2
:1011D00028D0E3493031884224D0E149483188425F
:1011E00020D0E04988421DD0DE491831884219D00C
:1011F000DC493031884215D0DA494831884211D073
:10120000DFF860E30EF1600E70450BD0D54A7832FE
:10121000904207D0D34B9033984203D0D149A831A4
:1012200088427DD194F85C20082102F01F0201FA67
:1012300002F23A424AD0B04232D0404530D048451E
:101240002ED050452CD058452AD0C54A183290424D
:1012500026D0C34A3032904222D0C14A483290420E
:101260001ED0C04A90421BD0BE4A1832904217D0BE
:10127000BC4A3032904213D0BA4A483290420FD022
:10128000B84A603290420BD0B64A7832904207D0CA
:10129000B44A9032904203D0B24AA832904203D16D
:1012A000026802F0040202E0026802F008026AB179
:1012B000026822F00402026094F85C0000F01F0053
:1012C0008140A960606D40F00100606594F85C00A9
:1012D000012100F01F008140394240D02068B04217
:1012E00034D0404532D0484530D050452ED05845B6
:1012F0002CD09B4A1832904228D0994A30329042E2
:1013000024D0974A4832904220D0964A90421DD02D
:10131000944A1832904219D0924A3032904200E0FA
:10132000AFE113D08F4A483290420FD08D4A6032DD
:1013300090420BD08B4A7832904207D0894A903243
:10134000904203D0874AA83290427DD1406910F084
:10135000800F04D0A960606D40F00200606594F8D1
:101360005C00042100F01F00814039423ED020681B
:10137000B04232D0404530D048452ED050452CD0D8
:1013800058452AD0764A1832904226D0744A3032D4
:10139000904222D0724A483290421ED0714A904206
:1013A0001BD0704A1832904217D06E4A30329042A9
:1013B00013D06C4A483290420FD06A4A6032904251
:1013C0000BD0684A7832904207D0664A90329042F9
:1013D00003D0644AA83290424ED1006810F0020F48
:1013E00004D0A960606D40F00400606594F85C0072
:1013F000102100F01F008140394258D02068B042CF
:1014000034D0404532D0484530D050452ED0584594
:101410002CD0534A1832904228D0514A3032904250
:1014200024D04F4A4832904220D04E4A90421DD09C
:101430004C4A1832904219D04A4A3032904215D064
:10144000484A4832904200E014E00FD0454A6032EA
:1014500090420BD0434A7832904207D0414A9032B2
:10146000904203D03F4AA832904207D1006800F072
:10147000080006E0006872E70068B7E7006800F05F
:101480000400A0B1A96020680168490304D5006880
:10149000000308D5A16C07E00168C90503D4016801
:1014A00021F008010160216C09B12046884794F8B9
:1014B0005C00202100F01F008140394279D0206873
:1014C000B04232D0404530D048452ED050452CD087
:1014D00058452AD0224A1832904226D0204A30322B
:1014E000904222D01E4A483290421ED01D4A90425D
:1014F0001BD01C4A1832904217D01A4A3032904200
:1015000013D0184A483290420FD0164A60329042A7
:101510000BD0144A7832904207D0124A903290424F
:1015200003D0104AA832904203D1006800F01000A6
:1015300002E0006800F00200B0B3A96094F8350042
:101540000428206801680FD049037ED50068000395
:101550002BD4616C2AE0000010000240040000243B
:10156000700002401004024021F016010160206862
:10157000416921F080014161206C08B9A06C20B163
:101580002068016821F00801016094F85C303F2177
:10159000012003F01F0300229940A96084F8350060
:1015A00084F83420216D65E003E0E16B09B1204649
:1015B0008847606D00287DD0606DC00759D02068D5
:1015C000042184F83510B0422BD0404529D048453D
:1015D00027D0504525D0584523D09D49884220D05A
:1015E0009B49183188421CD099493031884218D023
:1015F0009849884215D097491831884211D09549A9
:10160000303188420DD093494831884209D0914900
:101610006031884205D08F497831884201D08D49A8
:101620009031016821F00101016020680099019A60
:10163000491C0091914202D80168C907F6D100689F
:10164000C00710D003200FE0FFE70168C905ACD444
:1016500003680121002223F01003036084F8351091
:1016600084F83420A1E7012084F83500002084F8B4
:101670003400E16C00291DD002B02046BDE8F05FC7
:101680000847754988421DD073491431884219D0E2
:1016900071492831884215D06F493C31884211D0B8
:1016A0006D49503188420DD06B496431884209D070
:1016B000694900E084E07831884203D066498C3182
:1016C00088427DD194F85C800427016808F01F08E7
:1016D00007FA08F717EA0C0F009746D04F0744D5D2
:1016E00000980F04686003D5C8033CD4A16CC1E71F
:1016F000880638D42068B0422DD0554960398842D8
:1017000029D0484527D0504525D0584523D05049A9
:10171000884220D04E49183188421CD04C49303183
:10172000884218D04B49884215D04A49183188421E
:1017300011D04849303188420DD04649483188425D
:1017400009D0704507D0904205D0984203D0414956
:10175000A831884203D1016821F0080102E0016844
:1017600021F004010160216C84E7022707FA08F7E1
:1017700017EA0C0F00974ED08F074CD500980F0436
:10178000686003D5C80344D4616C73E7880640D40D
:101790002068B0422FD02E49603988422BD048456E
:1017A00029D0504527D0584525D02949884222D0F4
:1017B0002749183188421ED025493031884200E03F
:1017C00044E018D02349884215D022491831884274
:1017D00011D02049303188420DD01E49483188420D
:1017E00009D0704507D0904205D0984203D01949DE
:1017F000A831884203D1016821F0140102E0016898
:1018000021F00A010160012184F83510002084F8DC
:101810003400E16B2EE7082202FA08F212EA0C0FFC
:1018200014D0090712D5016821F00E01016094F867
:101830005C100120002201F01F0100FA01F1696033
:10184000606584F8350084F8342012E7BDE8FC9F19
:101850008800024010040240085402582DE9F05F4D
:10186000044600F055FC002C07467DD0E34E0221D3
:1018700020684FF00308DFF888934FF00005DFF889
:1018800084A3B042DFF880B334D0DC4A18329042EF
:1018900030D048452ED050452CD058452AD0DA4A71
:1018A0001832904226D0D84A3032904222D0D64ABE
:1018B000483290421ED0D54A90421BD0D34A1832AB
:1018C000904217D0D14A3032904213D0CF4A48329A
:1018D00090420FD0CD4A603290420BD0CB4A783242
:1018E000904207D0C94A9032904203D0C74AA832EA
:1018F00090427DD184F83510B04284F834502ED017
:10190000BE49183188422AD0484528D0504526D0B3
:10191000584524D0BC491831884220D0BA493031CA
:1019200088421CD0B8494831884218D0B74988420B
:1019300015D0B6491831884211D0B44930318842A7
:101940000DD0B2494831884209D0B049603188424F
:1019500005D0AE497831884201D0AC499031016858
:1019600021F00101016008E027E100BF00F0D0FB99
:10197000C01B052801D920211CE120680068C00790
:10198000F4D104F108002168D4E9053C8E4685C8ED
:1019900009681043D4E907281F43636A38439C4F02
:1019A00040EA0C001043394040EA0800042B40EAAA
:1019B000010003D1D4E90B1211430843954909688A
:1019C0006FF30F01B1F1005F0FD36168A1F129023C
:1019D000052A08D9163A032A05D9083A012A02D954
:1019E0004F39032901D840F48010CEF8000000E000
:1019F00023E02068676A4069042F20F0070047EA67
:101A000000070DD1D4E90A01074349B12046FEF78A
:101A100081FF28B140206065012184F83510CCE0B9
:101A2000206847612046FEF793FE94F85C203F2132
:101A300002F01F029140816054E0774A90421BD02F
:101A4000754B1433984217D0734B2833984213D0F8
:101A5000714B3C3398420FD06F4B503398420BD0B0
:101A60006D4B6433984207D06B4B7833984203D068
:101A7000694B8C3398427DD184F8351084F834500A
:101A8000664B0168A26801EA030E402A73D0802ADF
:101A900072D00022D4E90378D4E9053142EAD702B2
:101AA00042EAD8085C4AD4E9077C48EAD30848EA05
:101AB000D10141EAD701524241EA1C11142341EA03
:101AC0000E01016020681044B0FBF3F08000E06577
:101AD0002046FEF73DFE94F85C20012102F01F0233
:101AE000914041602068B04257D044491831884243
:101AF00053D0484551D050454FD058454DD042491C
:101B00001831884249D040493031884245D03E4959
:101B10004831884241D03D4988423ED03B49183146
:101B200088423AD039493031884236D03749483135
:101B3000884232D03549603188422ED033497831DD
:101B400088422AD031499031884226D02F49A83185
:101B5000884222D0304988421FD02F491431884210
:101B60001BD02D492831884217D02B493C3188425F
:101B700013D002E01DE017E018E0274950318842F9
:101B80000BD025496431884207D0234978318842F7
:101B900003D021498C31884229D12046FEF732FEFC
:101BA000A06880280CD00CE0102273E74FF480422C
:101BB00070E74021616584F835800120BDE8F09F21
:101BC0006560216E20790860D4E919014160606880
:101BD000401E072808D82046FEF762FEE06E05602A
:101BE000D4E91C01416002E0E566256765670120D4
:101BF000656584F835000020E0E700001000024031
:101C000040000240580002407000024010040240B0
:101C10003F8010FE0010005C085402580F00FEFFC9
:101C20002DE9F84F04008C464FF00000009014D0CE
:101C300094F83400012812D094F835500120002186
:101C400084F83400012D0CD0C002606501200090A2
:101C500084F834100098BDE8F88F0120FBE70220DB
:101C6000F9E78C4D0226206884F83560A8428A4D39
:101C700061658A4E8A4FDFF82C82DFF82C92DFF8FC
:101C80002CA2DFF82CB226D0A84224D0B04222D019
:101C9000B84220D040451ED048451CD050451AD0EF
:101CA000584518D08349884215D082491831884256
:101CB00011D08049303188420DD07E494831884268
:101CC00009D07C496031884205D07A497831884210
:101CD00001D078499031016821F00101016061462D
:101CE0002046FEF741FE6B49206888422CD0A8426E
:101CF0002AD0B04228D0B84226D0404524D048450A
:101D000022D0504520D058451ED06A4A90421BD060
:101D1000684A1832904217D0664A3032904213D047
:101D2000644A483290420FD0624A603290420BD0EF
:101D3000604A7832904207D05E4A9032904203D097
:101D40005C4AA83290420CD1026822F01E0242F096
:101D500016020260206C88B12068026842F0080216
:101D60000BE0026822F00E0242F00A020260206CD0
:101D700020B12068026842F00402026020688842B4
:101D80004BD0A84249D0B04247D0B84245D0404598
:101D900043D0484541D050453FD058453DD0454AB5
:101DA00090423AD0434A1832904236D0414A3032BB
:101DB000904232D03F4A483290422ED03D4A603263
:101DC00090422AD03B4A7832904226D0394A90320B
:101DD000904222D0374AA83290421ED0364A9042D2
:101DE0001BD0354A1432904217D0334A28329042E1
:101DF00013D0314A3C3290420FD02F4A5032904299
:101E00000BD02D4A6432904207D02B4A7832904250
:101E100003D0294A8C3290420DD1206E0268D20341
:101E200003D5026842F480720260E06E18B1026865
:101E300042F4807202602068884226D0A84224D0F2
:101E4000B04222D0B84220D040451ED048451CD0D8
:101E500050451AD0584518D01649884215D0154912
:101E60001831884211D01349303188420DD01149C0
:101E70004831884209D00F496031884205D00D4968
:101E80007831884201D00B499031016841F001015D
:101E90000160DFE6100002402800024040000240DE
:101EA000580002407000024088000240A00002403A
:101EB000B800024010040240085402580248016869
:101EC00041F0010101607047200400582DE9F84FEE
:101ED00003247D4D00234FF001094FF0B04B4FF02C
:101EE0000F0AE9E009FA03F73A4076D00E7906F0D6
:101EF0000306012E01D0022E18D1D0F808C04FEAF7
:101F0000430ECE6804FA0EF82CEA080C06FA0EF618
:101F100046EA0C068660D0F804C00E792CEA070C5D
:101F2000C6F300169E4046EA0C0646600E79F6435C
:101F3000B6070BD0C6684FEA43088F6804FA08FC5E
:101F400026EA0C0607FA08F73743C7600E7906F051
:101F50000306022E12D1DE080F694FEA437C00EB24
:101F60008606B646366A4FEADC6C0AFA0CF807FABF
:101F70000CF726EA08063743CEF820700F7906687A
:101F80004FEA430807F0030704FA08FC07FA08F7CA
:101F900026EA0C06374307604E6816F4403F1CD013
:101FA0004A4E376847F00207376036689F0706F0E9
:101FB0000206009623F0030606F1B046B6463F0F30
:101FC000D6F80864DFF808810AFA07FC404526EADB
:101FD0000C0603D14FF0000C41E06CE0DFF8F4C0D8
:101FE000604502D14FF0010C39E0DFF8ECC06045EC
:101FF00002D14FF0020C32E0DFF8E0C0604502D1C0
:102000004FF0030C2BE0DFF8D8C0604502D14FF051
:10201000040C24E0DFF8CCC0604502D14FF0050C81
:102020001DE0DFF8C4C0604502D14FF0060C16E099
:10203000DFF8B8C0604502D14FF0070C0FE0DFF8C1
:10204000B0C0604502D14FF0080C08E0DFF8A4C032
:10205000604502D14FF0090C01E04FF00A0C0CFA78
:1020600007FC4CEA060CCEF808C44F68DBF80060A9
:10207000FF0226EA020600D516435F46CBF8006051
:10208000D1F804C0DBF804605FEA8C2C26EA020673
:1020900000D516437E606E684F6826EA0206BF03CD
:1020A00000D516436E602E684F6826EA0206FF03CD
:1020B00000D516432E605B1C0A6832FA03F67FF4E3
:1020C00011AFBDE8F88F000080000058F4440258BA
:1020D000000002580004025800080258000C025880
:1020E000001002580014025800180258001C025830
:1020F00000200258002402580AB181617047090487
:10210000FBE7000001480068000C70470010005C0D
:10211000014880687047000014000024024881686C
:10212000027811448160704714000024052010B526
:1021300000F0C6F800F0A8FB0F4A104914681368B5
:10214000C4F3032203F00F038A5CC95C02F01F0290
:1021500001F01F01D0400A4A20FA01F1116009493B
:1021600008600F2000F010F808B1012010BD00F049
:1021700079F8002010BD000018440258CC990208DC
:10218000080000240400002470B50D4D0446287892
:10219000A0B14FF47A71B1FBF0F00A490968B1FBC4
:1021A000F0F001F059FA48B9102C07D2002221466C
:1021B000501E00F065F800206C6070BD012070BDFD
:1021C0001400002404000024F0B5154C4378211DB0
:1021D0000A1D23600378F3B143680B60057BC67A60
:1021E000817A437B2D07847B45EA0665C77B90F89F
:1021F00009C0067A90F800E045EAC14040EA834011
:1022000040EA444040EA074040EA0C2040EA4600E9
:1022100040EA0E0001E0002008601060F0BD000000
:1022200098ED00E0BFF35F8F044800210368034A84
:1022300023F48033036070321160704724ED00E0B6
:10224000074A40F00100064970321060086840F407
:1022500080300860BFF34F8FBFF36F8F704700006F
:1022600024ED00E07047002809DB410900F01F025F
:102270008900012001F1E0219040C1F80001704780
:102280000E4BF0B41B680D46C3F30223C3F10706DF
:10229000042E00D90426191D072901D2002300E0CD
:1022A000DB1E012404FA06F19C40491E2940641EED
:1022B000994014402143F0BC02F0CDBB0CED00E08E
:1022C000064900F0070210B54FF6FF040868044BFA
:1022D000204040EA02201843086010BD0CED00E0E9
:1022E0000000FA050248016841F080710160704702
:1022F0000C48025810B500F081FA05490968054AF2
:10230000C1F30211515C01F01F01C84010BD000073
:1023100020440258CC990208494930B5484C0B1D5D
:102320000A68143409681D68246802F00303C5F3C1
:102330000012C1F30531C4F3CC04002914FB02F2EE
:1023400000EE102AF8EE400A75D03F4A9FED3D1A84
:10235000B7EE000A6BB1DFED3D1A012B01D0022B65
:1023600064D002EE101A1168F8EE422A81EEA22A19
:1023700021E0334C283C23689B0612D5344B24685B
:1023800001EE901A1168C4F3C104F8EE612AE3402B
:1023900001EE903AC1F30801F8EE611A81EEA22A2B
:1023A0000BE001EE901ADFED2B2A00BFF8EE611A68
:1023B000116882EEA12AC1F3080101EE901A11689A
:1023C000F8EE611A40EE811A71EE800A62EE200A80
:1023D000C1F3462101EE101AB8EE411A31EE001A8F
:1023E000C0EE811ABCEEE11A80ED001A1168C1F34B
:1023F000064101EE101AB8EE411A31EE001AC0EE95
:10240000811ABCEEE11A80ED011A1168C1F3066170
:1024100001EE101AB8EE411A31EE000A80EE801A71
:10242000BCEEC10A80ED020A30BD04E001EE901A54
:10243000DFED092ABAE70021016041608160F3E71E
:102440002844025800000039384402580024744AD5
:102450000090D0030024744C20BCBE4B494930B5D9
:10246000484C0B1D0A681C3409681D68246802F07A
:102470000303C5F30022C1F30551C4F3CC040029C2
:1024800014FB02F200EE102AF8EE400A75D03F4A23
:102490009FED3D1AB7EE000A6BB1DFED3D1A012B3F
:1024A00001D0022B64D002EE101A1168F8EE422A15
:1024B00081EEA22A21E0334C283C23689B0612D5EA
:1024C000344B246801EE901A1168C4F3C104F8EE8D
:1024D000612AE34001EE903AC1F30801F8EE611A77
:1024E00081EEA22A0BE001EE901ADFED2B2A00BF4D
:1024F000F8EE611A116882EEA12AC1F3080101EE1B
:10250000901A1168F8EE611A40EE811A71EE800A95
:1025100062EE200AC1F3462101EE101AB8EE411A0C
:1025200031EE001AC0EE811ABCEEE11A80ED001AFD
:102530001168C1F3064101EE101AB8EE411A31EEEE
:10254000001AC0EE811ABCEEE11A80ED011A116882
:10255000C1F3066101EE101AB8EE411A31EE000A1D
:1025600080EE801ABCEEC10A80ED020A30BD04E0A4
:1025700001EE901ADFED092ABAE7002101604160FF
:102580008160F3E7284402580000003940440258B3
:102590000024744A0090D0030024744C20BCBE4B2D
:1025A0002DE9F05F04000F467ED0DFF83882D8F8BE
:1025B000000000F00F00B8420CD2D8F8001021F053
:1025C0000F013943C8F80010D8F8000000F00F00E0
:1025D000B84269D12078844D40070AD5206929681E
:1025E00001F07001884204D9296821F0700101438B
:1025F000296020787C4E361D00070AD56069316855
:1026000001F07001884204D9316821F07001014362
:1026100031602078C0060AD5A069316801F4E06114
:10262000884204D9316821F4E061014331602078A7
:10263000DFF8B4B180060BF1080B0CD5E169584600
:10264000DBF8002002F07002914204D9026822F007
:1026500070020A430260207880070AD5E068296882
:1026600001F00F01884204D9296821F00F010143CC
:1026700029602078C0073ED05B49A26828681839D5
:1026800020F47060104328606068022818D0032886
:1026900019D00968012819D0490700294ADADFF85A
:1026A00048A1AAF1080A00E044E0DAF8002022F08C
:1026B00007020243CAF80020FFF72AFD814612E014
:1026C00009688903E9E709688901E6E7C905E4E7DC
:1026D000FFF71EFDA0EB090141F28830814202D9CB
:1026E0000320BDE8F09F6168DAF8000000F03800D0
:1026F000B0EBC10FECD1207880070AD5E0682968DB
:1027000001F00F01884204D2296821F00F01014332
:102710002960D8F80010404601F00F01B9420BD9EA
:10272000016821F00F0139430160006800F00F00DB
:10273000B84201D00120D4E7207840070AD52069AB
:10274000296801F07001884204D2296821F07001E3
:1027500001432960207800070AD56069316801F0DB
:102760007001884204D2316821F070010143316068
:102770002078C0060AD5A069316801F4E06188427A
:1027800004D2316821F4E061014331602078800691
:102790000CD5E1695846DBF8002002F07002914246
:1027A00004D2026822F070020A43026000F06CF862
:1027B0000E492A682B68C2F3032203F00F038A5CD8
:1027C000C95C02F01F0201F01F01D040084A20FA44
:1027D00001F111600749086007480068BDE8F05F33
:1027E000FFF7D2BC0020005218440258CC990208CE
:1027F00008000024040000241800002430B500F074
:1028000043F80B4A0B490C4B15681468C5F30322B7
:1028100004F00F048A5C095D02F01F0201F01F0141
:10282000D040064A20FA01F119601060084630BD18
:1028300018440258CC99020808000024040000241F
:1028400000B5FFF7DBFF05490968054AC1F302112E
:10285000515C01F01F01C84000BD00001C4402583B
:10286000CC99020800B5FFF7C9FF05490968054A78
:10287000C1F30221515C01F01F01C84000BD0000FE
:102880001C440258CC990208454970B5454809686E
:10289000434B103B11F0380208D00111082A03D035
:1028A000102A0BD0182A0BD0084670BD196889066B
:1028B000FBD51968C1F3C101C84070BD3A4870BD6D
:1028C0003749374D18310C1D24350A6809682668C8
:1028D0002D6802F0030406F00102C1F30511C5F3EF
:1028E000CC0515FB02F200EE102AB8EE400AE9B35F
:1028F0002F4ADFED2E0AB7EE001A6CB1DFED2D1A6C
:10290000012C01D0022C43D002EE101A1068F8EE10
:10291000422A81EEA22A1EE01C68A40611D51B687B
:1029200001EE901A1168C3F3C103F8EE612AD84092
:1029300001EE900AC1F30800F8EE611A81EEA22AB6
:102940000BE001EE901ADFED1C2A00BFF8EE611AD1
:10295000106882EEA12AC0F3080001EE900AF8EE9A
:10296000611A40EE201A31EE810A00E015E022EEF5
:10297000000A1068C0F34620401C00EE900AF8EEF2
:10298000600A80EE201ABCEEC10A10EE100A70BD7B
:1029900001EE901ADFED092AD8E7002070BD000093
:1029A000104402580090D00340787D0100000039A7
:1029B000304402580024744A0024744C20BCBE4B9E
:1029C0002DE9F05F04007DD0FF4F2078FE4D1837D1
:1029D000DFF8F493103DC00748D0D9F800003968FB
:1029E00000F03800102815D0182803D101F003009A
:1029F00002280FD06068B0F5803F12D010B1B0F55A
:102A0000A02F18D0286820F480302860286820F48F
:102A1000802009E02868800328D560680028D2D08B
:102A200024E0286840F480302860606888B1FFF7AF
:102A30006FFB064609E0286840F480202860F0E734
:102A4000FFF766FB801B64286FD828688003F7D5E2
:102A50000CE0FFF75DFB064605E000BFFFF758FB03
:102A6000801B6428F0D828688003F7D4207841F2CE
:102A70000308D54E0C3E800769D5D9F800003968A7
:102A800010F038000ED0182801D188070AD0E0686D
:102A900090B3296821F0190101432960FFF738FB41
:102AA000824631E02868400702D5E06800288AD0D5
:102AB000E168286820F0190008432860FFF728FB28
:102AC000824607E0DFE000BFFFF722FBA0EB0A0031
:102AD0000228B9D828684007F6D500BFFFF712FBD7
:102AE00040451BD82069402812D0316821F47C3140
:102AF00041EA003030602AE018E000BFFFF708FB31
:102B0000A0EB0A0002289FD828684007F6D5E5E721
:102B1000306820F47C3040F40030EBE7207C3168F2
:102B200021F0FE4141EA0060E4E70DE1286820F071
:102B300001002860FFF7ECFA824605E0FFF7E8FAAB
:102B4000A0EB0A0002288DD828684007F6D4207828
:102B5000C0065DD5D9F80000DFF86CB2396800F026
:102B60003800ABF1040B082810D0182803D101F06D
:102B7000030001280AD0E0690028286838D040F016
:102B800080002860FFF7C4FA824623E02868C00569
:102B900023D5E069802876D11FE0206A202821D043
:102BA000316821F0F84141EA8060306030E000BFD8
:102BB00094F82010DBF8002022F07C5242EA0161F8
:102BC000CBF8001024E000BFFFF7A2FAA0EB0A0048
:102BD000022898D82868C005F6D5FFF793FA404533
:102BE000E6D8DAE7306820F0F84040F08040DCE7D3
:102BF00020F080002860FFF78BFA064605E000BF52
:102C0000FFF786FA801B02289DD82868C005F7D4F4
:102C10002078000729D56C48616964300029804616
:102C2000016811D041F001010160FFF771FA064619
:102C300005E000BFFFF76CFA801B0228C9D8D8F85E
:102C400000008007F6D510E021F001010160FFF7D8
:102C50005FFA064605E000BFFFF75AFA801B02281C
:102C600072D8D8F800008007F6D42078800623D5E3
:102C7000A0690028286810D040F480502860FFF731
:102C800047FA064605E02CE1FFF742FA801B0228CE
:102C90005AD828688004F7D50EE020F480502860C8
:102CA000FFF736FA064604E0FFF732FA801B0228E7
:102CB0004AD828688004F7D4207840074FD5DFF839
:102CC0000C81D8F8001041F48071C8F80010FFF7AB
:102CD0001FFA064605E000BFFFF71AFA801B6428BA
:102CE00032D8D8F80000C005F6D5374EA068603657
:102CF00001280AD008B1052813D0306820F001005F
:102D00003060306820F0040002E0306840F00100DC
:102D10003060A06841F2883A90B1FFF7F9F9804637
:102D20000AE0306840F004003060EEE7FFF7F0F9A9
:102D3000A0EB0801514507D830688007F6D50EE0B2
:102D4000FFF7E6F9804607E084E000BFFFF7E0F90F
:102D5000A0EB080151457DD830688007F6D4606A41
:102D6000B0B3DFF86480D9F8001008F12008C1F38F
:102D7000C20103296FD00228286820F080702860E3
:102D800003D0FFF7C5F9044680E0FFF7C1F9064616
:102D900005E000BFFFF7BCF9801B022873D8286844
:102DA0008001F7D4E26A40F2F331386854F8283FE2
:102DB000884340EA021018433860217B4FF4FE0C30
:102DC00022894FF0FE4704E01044025800480258A0
:102DD00089E0208A4902521E267DA1F5007189B240
:102DE000401EC2F308021143761E0CEA0040014364
:102DF0003E4807EA066211433C4AC8F80010083210
:102E0000016821F00101016011684FF6F876236A2C
:102E1000B14341EAC30111600168A26921F00C01CC
:102E2000114301600168E26921F002011143016070
:102E3000016841F480310160016841F400310160B2
:102E4000016841F480210160016841F001010160E5
:102E5000286801E017E01DE040F080702860FFF76F
:102E600057F9044605E000BFFFF752F9001B02289E
:102E700009D828688001F7D535E000BFFFF748F989
:102E8000001B022802D90320BDE8F09F28688001BA
:102E9000F4D428E039680128D8F8000021D0A26ACB
:102EA00001F0030393421CD1E26AC1F305118A4287
:102EB00017D1216BC0F30802491E8A4211D1616B00
:102EC000C0F34622491E91420BD1A16BC0F30642CA
:102ED000491E914205D1E16BC0F30660491E814253
:102EE00001D00120D0E70020CEE700002C4402589A
:102EF000704700002DE9F0470168044600200F6983
:102F0000D1F81490D1F8088094F8816007EA090597
:102F100015F0600F08D1690706D5616F2046884714
:102F2000216F20468847012005F04101012905D184
:102F3000690703D4216F20468847012005F022014C
:102F4000022906D1690704D4616F2046BDE8F04725
:102F50000847002857D128074FF0010A68D5206894
:102F600018F4404F826942F008018161206881694C
:102F700041F0100181612068816941F40061816143
:102F80002068016921F00801016109D0042E04D0F4
:102F9000A06FC06920B1032E3ED0E06FC069A0BB16
:102FA0002068806810F4404F1ED021E0E0680F28B0
:102FB00006D92068616E006B0860606E001D0DE030
:102FC000616E0728206804D9008E0880606E801C1E
:102FD00004E090F830000870606E401C6066B4F841
:102FE0006A00401EA4F86A00B4F86A000028DDD127
:102FF000204600F025FE84F881A0D4F8840020B19A
:103000002046FFF775FFBDE8F087FFE7052E07D0E4
:10301000042E09D0032EF6D1204600F003FBF2E780
:10302000204600F00CFBEEE7204600F02CF9EAE722
:103030005FEA095007D5380705D52068816941F452
:1030400000618161DFE715F4587FDCD068060AD59E
:10305000D4F8840040F00400C4F88400206881693A
:1030600041F040018161A8050AD5D4F8840040F000
:103070000100C4F884002068816941F40071816115
:10308000E8050AD5D4F8840040F00800C4F88400AC
:103090002068816941F480718161A8060AD5D4F85D
:1030A000840040F08000C4F884002068816941F009
:1030B00020018161D4F884000028A4D0206840F267
:1030C0006B32C8F381310368032923F001010160E9
:1030D0002068016921EA0201016102D084F881A01F
:1030E0008EE72068104D816821F440418160E06FD7
:1030F00050B10565E06FFDF7F9FE28B1D4F8840002
:1031000040F04000C4F88400A06F002887D0056517
:10311000A06FFDF7EBFE002885D0D4F8840040F0C6
:103120004000C4F884006EE7FD3C00082DE9F0473C
:10313000040029D0504A4FF0000920684F4B504DF1
:103140009042C4F8289006D0984204D0A84202D0F9
:10315000E1680F2918D8E1684FF0010AE76B0831E0
:10316000C9080AEB57167143904205D0984203D024
:10317000A84201D0082907D8904203D0984201D034
:10318000A84204D1102902D90120BDE8F08794F8A3
:10319000810020B9204684F8809000F073F8022066
:1031A00084F881002068016821F001010160216834
:1031B000A0698A68B0F1806F02F4F81010D16268DB
:1031C000B2F5800F01D01AB10AE0A26B22B107E07C
:1031D000A26BB2F1805F03D10A6842F480520A60A8
:1031E000A66AE169E26B25683143E3680243114353
:1031F0001943A960D4E90D02D4E90571636A256910
:103200001843D4F820C00A43266810432843A56D0C
:103210003843D4E90182D4E9123140EA0C0040EA93
:1032200008000843104318432843F060606868B9F9
:103230002068816821F4C05141F4006181602068F8
:10324000816821F4C06141F4806181602068016D72
:1032500021F0010101656068400206D52068626DB9
:10326000C16821F000411143C160C4F8849084F822
:1032700081A0002089E700000030014000380040B4
:10328000003C0040704770472DE9F84F8A4690F89F
:1032900080101D461746012904464FF0000B0DD043
:1032A0004FF0010884F88080FEF732FF814694F8E1
:1032B00081000026012804D002201EE00220BDE883
:1032C000F88FBAF1000F17D0B7B1A1680320C4F886
:1032D0005CA0A4F8607084F88100C4F88460A4F84D
:1032E00062706666A4F86860A4F86A60B1F5C02FE1
:1032F0006667266704D008E0012084F88060DEE776
:103300002068016841F400610160206841686FF342
:103310000F01394341602068016841F001010160FB
:103320006068B0F5800F04D12068016841F4007135
:103330000160E0680F281BD81FE0206841698907F9
:103340000BD5E16D09680162E06D001DE065B4F820
:103350006200401EA4F862000AE0FEF7D9FEA0EB6E
:103360000900A84202D3681C02D093E0002D2FD0A0
:10337000B4F862000028E0D172E007282AD86BE098
:103380002068416989071BD5B4F8621001290BD95F
:10339000E16B49B1E16D09680162E06D001DE06516
:1033A000B4F86200801E08E0E16D09880184E06DD8
:1033B000801CE065B4F86200401EA4F8620009E0D9
:1033C000FEF7A6FEA0EB0900A84202D3681C01D0BC
:1033D00060E0B5B3B4F862000028D1D140E02068C5
:1033E000416989072ED5B4F8621003290CD9E16B25
:1033F000402909D9E16D09680162E06D001DE065B1
:10340000B4F86200001F19E0B4F8621001290BD96A
:10341000E16B49B1E16D09880184E06D801CE065D4
:10342000B4F86200801E09E0E16D097880F8201090
:10343000E06D401CE065B4F86200401EA4F8620034
:103440000AE027E0FEF764FEA0EB0900A84202D3E1
:10345000681C01D01EE0EDB1B4F862000028BED1B6
:1034600000224B4608212046009500F083FC28B13D
:10347000D4F8840040F02000C4F88400204600F016
:10348000DFFB84F88180D4F8840084F8806080B108
:10349000012014E7204600F0D3FBD4F8841084F810
:1034A000806041F48071C4F8841084F88180032026
:1034B00005E7584603E700002DE9F041044690F87F
:1034C00080001646012809D094F8810001270025C4
:1034D00084F88070012804D0022032E00220BDE888
:1034E000F08169B366B3A2680320E165A4F8606067
:1034F00084F88100C4F88450A4F86260656665674A
:103500002567A4F86850A4F86A50B2F5C02F04D11A
:103510002068016841F400610160E1684FF4804275
:103520000F2903D9A06F8069904209D1A06F0729A4
:103530004FF4005308D98069984216D0904214D0B5
:10354000012084F88050CAE78169994205D1B4F816
:103550006210491C4908A4F86210806990420ED19B
:10356000B4F86200C01C800807E00F2907D8904219
:1035700005D1B4F86200401C4008A4F86200A06FB6
:1035800025490164A16F2548C863A16F2448C86418
:10359000A06F05652068816821F400418160B4F85E
:1035A00062302268E16DA06F2032FEF739FB58B11E
:1035B000D4F88410384684F8805041F01001C4F8E3
:1035C000841084F881708AE7A06FC069B0F5807FAD
:1035D000206841686FF30F0100D0314341602068DB
:1035E000816841F4004181602068016941F44871BB
:1035F00001612068016841F0010101606068B0F577
:10360000800F04D12068016841F4007101602846F0
:1036100084F8805063E70000433D00084D3D0008FA
:10362000173D000800680349884202D10249012081
:103630000870704700380040200000247047704731
:1036400004284FF0E020016903D021F0040101615A
:10365000704741F00401FAE7401EB0F1807F10B5D9
:1036600001D3012010BD4FF0E02460610F216017ED
:1036700001F0F1F90020A0610721216110BD704720
:1036800070477047704770470146D0F88400D1F802
:1036900088100843704700002DE9F0410368044694
:1036A000002540F60F06D86919689A68304209D19A
:1036B00086067DD501F0200602F080573E4377D084
:1036C000216F62E1C64EC74F16400F4037436FD09F
:1036D000C70709D0CF0507D501271F62D4F88C3062
:1036E00043F00103C4F88C3083070AD5D30708D010
:1036F000276802233B62D4F88C3043F00403C4F8FB
:103700008C3043070AD5D30708D0276804233B62CF
:10371000D4F88C3043F00203C4F88C3003070CD586
:1037200001F02003334308D0266808233362D4F81D
:103730008C3043F00803C4F88C3003050BD54B01E3
:1037400009D526684FF400633362D4F88C3043F017
:103750002003C4F88C30D4F88C30002B3AD080068B
:1037600009D501F0200002F08051084303D0216FF9
:1037700009B1204688472168D4F88C008968490639
:1037800002D410F0280F27D0204600F037FC206824
:10379000806840061BD52068083050E8001F21F0E3
:1037A000400140E80012002AF5D1E06F78B100E056
:1037B00018E08D490165E06FFDF798FB002809D0FE
:1037C000E06F016D00E02046BDE8F041084720466B
:1037D000FFF759FFBDE8F0812046FFF754FFC4F81A
:1037E0008C50F7E7E76E2026012F7CD1C7067AD5EB
:1037F000CF0678D5102018622068806840067DD5F5
:10380000E16F7A4A0868904234D0784A1832904280
:1038100030D0764A303290422CD0744A48329042AE
:1038200028D0724A6032904224D0704A7832904256
:1038300020D06E4A903290421CD06C4AA8329042FE
:1038400018D06B4A904215D0694A1832904211D074
:10385000674A303290420DD0654A4832904209D0D2
:10386000634A6032904205D0614A7832904201D07A
:103870005F4A903240680004000CABD0B4F85C2082
:103880008242A7D9A4F85E00C869B0F5807F2ED027
:10389000216851E8000F20F4807041E80002002AFE
:1038A000F6D12068083050E8001F21F0010140E8FF
:1038B0000012002AF5D12068083050E8001F21F0DE
:1038C000400140E80012002AF5D1C4F88860E5669E
:1038D000216851E8000F20F0100041E80002002AA2
:1038E000F6D1E06F01E03BE008E0FDF74FF9B4F8F6
:1038F0005C00B4F85E10401A81B22DE0B4F85C00B0
:10390000B4F85E10B4F85E20401A81B2002AB4D038
:103910000029B2D0226852E8000F20F4907042E8EB
:103920000003002BF6D1334B226802F1080252E863
:10393000000F00EA030042E80007002FF4D1C4F8AA
:103940008860E5662567226852E8000F20F01000C5
:1039500042E80003002BF6D12046FFF790FE39E73E
:10396000C70209D5570207D54FF4801018622046C8
:10397000BDE8F041FFF786BE03060AD501F08003DB
:1039800002F40002134304D0616F00297FF41BAFDF
:1039900020E7420611D54A060FD52046026852E8B4
:1039A000001F21F0400142E80013002BF6D1C0F8BF
:1039B0008460456700F0F4F80CE7020206D54A007F
:1039C00004D52046BDE8F041FFF75BBEC001C6D577
:1039D0000029C4DA2046BDE8F041FFF751BE0000DF
:1039E0000100001020010004E93F0008100002401F
:1039F00010040240FEFFFFEF10B5040003D0D4F81E
:103A0000840010B107E0012010BD002084F8800080
:103A1000204600F027F82420C4F8840020680168BC
:103A200021F001010160204600F02AFD0128EBD0C1
:103A3000A06A10B1204600F043FA2068416821F4E2
:103A4000904141602068816821F02A0181602068EE
:103A5000016841F0010101602046BDE8104000F01E
:103A600093BA000030B5006887B01F49884238D14A
:103A70001E48016841F010010160006800F010006C
:103A800005901A481038016841F001010160016891
:103A900001F001010591016841F001010160006838
:103AA0000122134D072400F0010005900220049428
:103AB0000102CDE90010CDE9022069462846FEF753
:103AC00005FA4FF480606946049400902846FEF79A
:103AD000FDF92520FEF7C7FB032225201146FEF73E
:103AE000CFFB07B030BD000000100140F044025889
:103AF0000000025870B4D0F88830202B20D1E1B1FA
:103B0000DAB190F88030012B1AD0036801260D4DF0
:103B1000002480F88060C466AB420BD05B681B0257
:103B200008D5046854E8003F43F0806344E800355A
:103B3000002DF6D170BC00F079BE012070BC70473A
:103B40000220FBE7000C005830B50068114988429C
:103B50000CD1114841880A0408D402464FF00003F2
:103B60004C04127806D50A2A01D0438030BD41F4B6
:103B700000410DE00D2A09D0084DC1F30D04491C88
:103B800089B2C7292A554180EFD830BD41F4804120
:103B9000418030BD001001400E000024B80A00240E
:103BA0007047FEE72DE9F0410428074614D24FF094
:103BB00000054FF0FF062C46204600F023F810B118
:103BC0006D1C2646EDB2641CE4B2042CF4D3012D26
:103BD00016D1BE4211D013E005D1002000F012F83A
:103BE00070B1012006E005280AD1012000F00AF892
:103BF00030B1022000F006F810B10120BDE8F081DC
:103C00000020FBE7084951F8302001EBC0011069A2
:103C10008A88104000D001208979814201D1012099
:103C20007047002070470000FC990208FEE7FEE79D
:103C3000704700000148FFF75DB9000080090124CA
:103C400010B5026840F26F335169946944F008047A
:103C500094610268946944F01004946102681468E5
:103C600024F001041460026814699C431461026822
:103C7000936823F44043936090F88120042A0CD089
:103C80008A060AD5D0F8842042F08002C0F8842049
:103C90000268936943F02003936190F88120032A1E
:103CA0000CD04A060AD5D0F8842042F00402C0F8AD
:103CB00084200268936943F0400393618A050AD522
:103CC000D0F8842042F00102C0F884200268936991
:103CD00043F400739361C9050AD5D0F8841041F00C
:103CE0000801C0F8841001688A6942F480728A6110
:103CF0000021A0F86210A0F86A1010BD10B5806B0A
:103D000000210122A0F86A10A0F8621080F881203A
:103D1000FFF7EEF810BD10B5846BFDF729FA022805
:103D20000ED02046FFF78CFFD4F88410012041F01C
:103D30001001C4F8841084F881002046FFF7D8F8F9
:103D400010BD10B5806BFFF779FC10BD10B5806B0E
:103D500090F88110072909D0816FC969B1F5807F7A
:103D600005D00068016941F00801016110BDFFF74D
:103D700059FC10BD2DE9F041984616460D46074600
:103D8000069C09E0FEF7C4F9A0EB0800A04202D3AC
:103D9000601C01D00BE054B13868406935EA00007E
:103DA00007D00020B042EDD00020BDE8F081032014
:103DB000FBE70120F6E77047094810B50178491C78
:103DC000C9B201700A2903D10021017003F014FF68
:103DD000012020F053F8BDE81040FEF79FB9000025
:103DE000000000242C48F0B52C4A016841F4700111
:103DF0000160106800F00F00072804D2106820F05E
:103E00000F00C01D106026490020254C10340B689F
:103E1000244D43F001030B6020600B682B400B60C6
:103E2000136803F00F03072B04D9136823F00F0363
:103E3000DB1D13601A4C1C4A18341C4B261D371D01
:103E40002060174C1A4D28343060261D3860371D0D
:103E500023603B1D35601C1D3A60251D2E1D18601A
:103E6000331D22602860326018600A680C4B114CC8
:103E700022F4802260330A60186020686FF30F001C
:103E8000B0F1005F03D20C490120C1F8080143F2F0
:103E9000D2000A490860F0BD88ED00E00020005221
:103EA000004402587FEDF6EA80020101000202029E
:103EB0000000FF010010005C008000510040005233
:103EC00090F82810C90706D00168C36A4A6822F42E
:103ED00000321A434A6090F82810890706D5016815
:103EE000036B4A6822F480321A434A6090F8281023
:103EF000490706D50168436B4A6822F480221A43B9
:103F00004A6090F82810090706D50168836B4A6853
:103F100022F400421A434A6090F82810C90606D5D8
:103F20000168C36B8A6822F480521A438A6090F851
:103F30002810890606D50168036C8A6822F40052AD
:103F40001A438A6090F82810490611D50168436C1D
:103F50004A6822F480121A434A60416CB1F5801F0E
:103F600006D10168836C4A6822F4C0021A434A6091
:103F700090F82810090606D50168C26C486820F43C
:103F80000020104348607047F8B500260446C0F88A
:103F90008C60FEF7BDF8054620686FF07E4700682C
:103FA000000708D500222B464FF400112046009749
:103FB00000F0C8FC60B92068006840070AD50022FC
:103FC0002B464FF480012046009700F0BBFC08B15F
:103FD0000320F8BD2020C4F88400C4F88800E666F9
:103FE000002084F88060F8BD10B5806B0021A0F837
:103FF0005E10A0F85610FFF746FB10BD10B5026822
:1040000052E8001F21F4907142E80013002BF6D112
:104010000E4B0268083252E8001F194042E80014B3
:10402000002CF6D1C16E012908D1026852E8001FA8
:1040300021F0100142E80013002BF6D100212022CC
:10404000C0F88820C166016710BD0000FEFFFFEFC9
:1040500010B5D0F88810B0F860202229016804D08B
:10406000886940F00800886110BD496A836D11407D
:104070001980816D891C8165B0F85E10491EA0F819
:104080005E10B0F85E100029EED1026852E8001F01
:1040900021F4907142E80013002BF6D10168083139
:1040A00051E8002F22F0010241E80023002BF5D156
:1040B0002022C0F888200021C26E0167012A02D0A8
:1040C000FFF742FD10BDC166026852E8001F21F0F3
:1040D000100142E80013002BF6D10168CA69D243EF
:1040E000D20601D410220A62B0F85C10FFF7C7FABA
:1040F00010BD00002DE9F04704460068C569D0F8FE
:1041000000A0D0F80880D4F88810B4F860602229A4
:1041100005D0816941F008018161BDE8F087B4F8FC
:1041200068704FF0000963E02068A16D406A30407C
:104130000880A06D801CA065B4F85E00401EA4F845
:104140005E002068C569690730D0E9070AD05FEAD8
:10415000CA5107D501210162D4F88C0040F001005A
:10416000C4F88C00A8070BD55FEAC87008D0216896
:1041700002200862D4F88C0040F00400C4F88C00DF
:1041800068070BD55FEAC87008D021680420086270
:10419000D4F88C0040F00200C4F88C00D4F88C00F5
:1041A00020B12046FFF76FFAC4F88C90B4F85E0097
:1041B000F0B9216851E8000F20F4807041E8000256
:1041C000002AF6D1264A2068083050E8001F114026
:1041D00040E80013002BF6D120214846C4F888108F
:1041E000E16EC4F87090012923D02046FFF7ACFCA3
:1041F0000FB1A80698D4B4F85E0000288DD0B4F8AA
:104200006810814289D92068083050E8001F21F0E9
:10421000805140E80012002AF5D112482067216839
:1042200051E8000F40F0200041E80002002AF6D1DA
:1042300073E7E066216851E8000F20F0100041E8C4
:104240000002002AF6D12068C169C943C90601D419
:1042500010210162B4F85C102046FFF710FAC7E79E
:10426000FEFFFFEF5140000810B5D0F88810B0F8FD
:1042700060202229016804D0886940F00800886124
:1042800010BD496A836D11401970816D491C8165AB
:10429000B0F85E10491EA0F85E10B0F85E1000295C
:1042A000EED1026852E8001F21F4907142E8001339
:1042B000002BF6D10168083151E8002F22F00102ED
:1042C00041E80023002BF5D12022C0F888200021EE
:1042D000C26E0167012A02D0FFF736FC10BDC1662D
:1042E000026852E8001F21F0100142E80013002B81
:1042F000F6D10168CA69D243D20601D410220A62FB
:10430000B0F85C10FFF7BBF910BD00002DE9F047D5
:1043100004460068C569D0F800A0D0F80880D4F839
:104320008810B4F86060222905D0816941F0080145
:104330008161BDE8F087B4F868704FF0000963E070
:104340002068A16D406A30400870A06D401CA065D7
:10435000B4F85E00401EA4F85E002068C5696907D5
:1043600030D0E9070AD05FEACA5107D501210162BE
:10437000D4F88C0040F00100C4F88C00A8070BD5DD
:104380005FEAC87008D0216802200862D4F88C0067
:1043900040F00400C4F88C0068070BD55FEAC870D1
:1043A00008D0216804200862D4F88C0040F0020094
:1043B000C4F88C00D4F88C0020B12046FFF763F9D4
:1043C000C4F88C90B4F85E00F0B9216851E8000F91
:1043D00020F4807041E80002002AF6D1264A2068C5
:1043E000083050E8001F114040E80013002BF6D1C0
:1043F00020214846C4F88810E16EC4F87090012965
:1044000023D02046FFF7A0FB0FB1A80698D4B4F83C
:104410005E0000288DD0B4F86810814289D92068E8
:10442000083050E8001F21F0805140E80012002AB7
:10443000F5D112482067216851E8000F40F02000B4
:1044400041E80002002AF6D173E7E066216851E8EE
:10445000000F20F0100041E80002002AF6D1206889
:10446000C169C943C90601D410210162B4F85C10C6
:104470002046FFF704F9C7E7FEFFFFEF6942000897
:104480002DE9F04304468068D84E87B0D84B2168A8
:10449000D4E90427D4F81CC010430A68002547EA71
:1044A0000C073843324002430A602068E2684168E2
:1044B00021F44051114341602268A1699A4201D020
:1044C000206A01439768DFF82CC3CB4ECB4807EA3C
:1044D0000C070F4397602168676ACA6A22F00F02CF
:1044E0003A43CA622268B2420ED1006800F0380036
:1044F000182873D047DCB8B3082879D010286FD1BA
:1045000078E028287ED17BE0BD498A4209D1006845
:1045100000F00700062875D2DFE800F0546A6C6EE0
:104520007072B8498A4209D1006800F00700062875
:1045300068D2DFE800F0475D5F616365B2498A4297
:1045400009D1006800F0070006285BD2DFE800F020
:104550003A5052545658AD498A420BD1006800F087
:10456000070006284ED200E010E0DFE800F02B4103
:1045700043454749A6498A420AD1006800F03800FD
:10458000182839D0B7DD2028BBD13CE001203AE023
:10459000A0498A4209D1006800F00700062831D2FC
:1045A000DFE800F01026282A2C2E9B498A420BD1E6
:1045B000006800F00700062824D2DFE800F00319A5
:1045C0001B1D1F2100201EE09A421BD18B48001D9D
:1045D000006800F00700062814D202E00CE007E0B3
:1045E00010E0DFE800F0030507090B0D02200AE0E8
:1045F000042008E0082006E0102004E0202002E06B
:10460000402000E080208549DFF814829A42854AE4
:104610004FF400434FEA21174FF000064ED1102807
:104620001AD006DC022809D004280BD008287CD137
:104630000DE020283ED0402877D13DE0FDF75AFE1E
:10464000014610E06846FDF767FE01990BE003A8FC
:10465000FDF704FF049906E01068800605D5106890
:10466000C0F3C100C140002970D0606A676838F8A3
:10467000102007EB4703B1FBF2F0834255D8B0EBB3
:10468000073F52D8002308461946FBF796FE02461C
:104690007808130E120243EA012110183A467141BC
:1046A0000023FBF78AFE604AA0F5407191423CD896
:1046B00021688FE03946D8E71946D6E7D4F81CC000
:1046C0004FF6EF799C4546D1082819D005DC58B142
:1046D00001280CD0042875D10DE0102815D0202811
:1046E00035D040286ED134E0FEF7AAF801E0FEF79D
:1046F000B9F8014610E06846FDF70EFE01990BE09F
:1047000003A8FDF7ABFE049906E01068800604D507
:104710001068C0F3C100C140C1B1636A606838F875
:104720001330B1FBF3F1490000E04BE001EB500125
:10473000B1FBF0F0A0F11001494543D84FF6F073FA
:104740002168C0F342021840104343E043E0394679
:10475000E3E71946E1E7082819D005DC58B101283C
:104760000CD004282ED10DE0102815D020282BD0F5
:10477000402827D12AE0FEF763F801E0FEF772F83F
:10478000014610E06846FDF7C7FD01990BE003A85C
:10479000FDF764FE049906E01068800604D51068F1
:1047A000C0F3C100C140B1B1636A606838F813302A
:1047B000B1FBF3F101EB5001B1FBF0F0A0F11001FE
:1047C000494505D9012506E03946EDE71946EBE7ED
:1047D000216880B2C8600120A4F86A00A4F86800CB
:1047E00028462667666707B0BDE8F083F369FFCF08
:1047F000000C0058FFF4FF1100100140544402580F
:104800000044004000480040004C00400050004080
:104810000014014000780040007C00400090D0036C
:10482000E499020800440258FFFC0F0070B5846848
:10483000002381654FF48055A0F85C20AC42A0F8BD
:104840005E204FF0FF01036704D1046904BB40F20E
:10485000FF111DE04FF07F06C4B1B4F1805F1AD0A4
:10486000A0F860302221C0F88C30C0F888100168B0
:10487000083151E8004F44F0010441E80046002EA1
:10488000F5D1416EB1F1005F0CD030E0046934B96C
:10489000A0F86010E6E7016909B13F21F8E7A0F848
:1048A0006060DFE7B0F86810914220D88168A942C3
:1048B00001D10169C9B11F490167016980F88030E0
:1048C00041B1026852E8001F41F4807142E80013D0
:1048D000002BF6D10168083151E8002F42F08052D8
:1048E00041E80023002BF5D121E01349E4E781687A
:1048F000A94201D1016979B110490167016980F8C4
:10490000803059B1016851E8002F42F4907241E8BB
:104910000023002BF6D10AE00949EEE7016851E8CF
:10492000002F42F0200241E80023002BF6D10020A6
:1049300070BD00000D430008F54000086942000802
:10494000514000082DE9F0479A4617460E460446A6
:10495000089D4FF000094FF020084CE0681C4AD039
:10496000FDF7D6FBA0EB0A00A8422AD84DB3206879
:10497000016849073FD5C069C04300053BD42168A1
:104980004FF400600862216851E8000F20F4D070F5
:1049900041E80002002AF6D12068083050E8001FE4
:1049A00021F0010140E80012002AF5D1C4F884800A
:1049B00084F88090C4F88880C4F88C800320BDE817
:1049C000F087206850E8001F21F4D07140E8001201
:1049D000002AF6D12068083050E8001F21F00101BC
:1049E00040E80012002AF5D1C4F8848084F8809051
:1049F000C4F88880E2E72068C06936EA000004D085
:104A00000020B842AAD00020D9E70120F9E7000031
:104A100070B50D4D00240D48FEF73EFE02E0641C0B
:104A2000AC4204D80948FEF72FFE2028F7D1002415
:104A300002E0641CAC4206D8054901220348FFF796
:104A400059F80028F5D170BDFFFF0100800B00244C
:104A50000E000024FEE7090700284FEA116104DB7D
:104A600000F1E02080F80014704700F00F0000F122
:104A7000E02080F8141D704770B5002504466FF0E3
:104A80002F0608E0206805EB8502411C216006EB3B
:104A90004202007885182068007800F004F80028A9
:104AA000F0D1284670BD3038092801D80120704760
:104AB000002070470848402110B501F025F907484B
:104AC000002204211FF034FA054CA06002F09AF98C
:104AD0000020207010BD0000140C0124AD6E0008F1
:104AE0009401002470B5B1F90040B2F900309C4245
:104AF00000DD23460380B1F90250B2F90240A5421D
:104B000000DD2C464480B1F90460B2F90450AE4295
:104B100000DA35468580B1F90610B2F906209142D7
:104B200000DB1146C180AB424FF0010001DC8C423A
:104B300000DD002070BDF8B50D46B1F90010044647
:104B4000B0F900001646884247DBB4F90210B5F907
:104B50000220914241DBB4F90410B5F904209142DE
:104B60003BDCB4F90610B5F90620914235DC96B36A
:104B7000ADF80000324660886946ADF8020028466C
:104B800000F099F8002827D0A0883246ADF8000040
:104B900069466088ADF80200284600F08CF80028CD
:104BA0001AD020883246ADF800006946E088ADF89A
:104BB0000200284600F07FF800280DD0A088324679
:104BC000ADF800006946E088ADF80200284600F024
:104BD00072F8002800D00120F8BD0020F8BDB0F91F
:104BE0000020B1F904309A4213DCB0F90420B1F985
:104BF00000309A420DDBB0F90220B1F906309A423A
:104C000007DCB0F90600B1F90210884201DB01208F
:104C1000704700207047F8B50D46B1F90010044602
:104C2000B0F904001646884243DBB4F90600B5F932
:104C3000021088423DDBB4F90000B5F90410884247
:104C400037DCB4F90210B5F90620914231DC76B3B5
:104C5000ADF80000324660886946ADF8020028468B
:104C600000F029F818BBA0883246ADF8000069466C
:104C70006088ADF80200284600F01DF8B8B9208819
:104C80003246ADF800006946E088ADF802002846DB
:104C900000F011F858B9A0883246ADF80000694616
:104CA000E088ADF80200284600F005F808B10020C1
:104CB000F8BD0120F8BD2DE9FC410546B1F9000021
:104CC0000E461446B5F9001088423ADBB5F9047077
:104CD000B84236DCB6F90200B5F90230984230DB52
:104CE000B5F9062090422CDC002C75DD781AD21A1A
:104CF000401C521C00B212B200EBD07002EBD27218
:104D000040105210904200DB1046844200DD044601
:104D1000ADF800102888002231462044ADF8040088
:104D20006888ADF8020068882044ADF8060068463F
:104D3000FFF7C1FF40B1BDF804002044ADF8040006
:104D40003FE00020BDE8FC81E88800223146001BDE
:104D5000ADF80200E888ADF806006846FFF7ABFF43
:104D600028B1BDF804002044ADF8040011E0A88883
:104D700000223146001BADF80000A888ADF8040001
:104D80006846FFF798FF50B1BDF80000001BADF872
:104D90000000BDF80200001BADF8020016E06888B4
:104DA0000022ADF80200314668882044ADF80600C4
:104DB0006846FFF780FF70B1BDF80000001BADF83A
:104DC0000000BDF806002044ADF8060031466846F4
:104DD0001CF07AFAB6E7FFE70120B3E710B5B1F9A6
:104DE0000040B2F900309C4200DA23460380B1F95A
:104DF0000240B2F902309C4200DA23464380B1F906
:104E00000440B2F904309C4200DD23468380B1F9AE
:104E10000610B2F90620914200DC1146C18010BD97
:104E2000FEB505461FF020F8784C00260746009690
:104E30000DB1E86801E011F0EDFD606000691CF063
:104E4000DFF96068406908B11CF0DAF96068C06990
:104E50001CF0D6F96068006A1CF0D2F9606801693C
:104E6000F1B31CF073FC1CF0EDFB6068B0F850115E
:104E700099B30168097C890715D511F029FE401EF8
:104E800005B2606811F0DEFD401E009503B20022FD
:104E900001A811460FF030FC606801688A6B01A917
:104EA000516004F0BFFF60684FF48071303017F03C
:104EB0001BFF6068202100F5987017F015FF6068EF
:104EC000A0F8506138461EF0C8FF00906068006886
:104ED000436A13B122680099984717F053FD00E028
:104EE00007E000F0CDF800F09FF8494D6F691FB161
:104EF00049E0A0F85061FEBD11F08CFD11F0B8FD45
:104F000016F022FC002207467F211CF081F80022C7
:104F10001146104611F078F801900022BDF80410F7
:104F200038461CF063F8FF221146104611F06CF869
:104F300001900022BDF8041038461CF0F7F800225A
:104F4000384603211CF0DAF80022384603211CF011
:104F5000C3F80022384603211CF0C4F8002238466A
:104F600003211CF0C5F80022384603211CF0D8F8B4
:104F700028A1384617F054FA0023384606211A466D
:104F800018F077FA6F6128681EF067FFB0F5967F1A
:104F90000CD2206841F288318842ACD96868009907
:104FA00008446860A868401CA860FEBD1EF05CFF55
:104FB00028604FF47A7160686A6840680068B1FBE5
:104FC000F0F00AB901216960A968E1B14FF47A7281
:104FD00051436A68B1FBF2F46E60AE60844200D95E
:104FE0000446286920442861E868401CE8601EF0F7
:104FF000D1FF03B02246C0F16403384606A1BDE8E4
:10500000F04017F044BA0446E6E7000050000024E0
:10501000800A01243F0000002575204650530A25D0
:10502000752525204350550070B50A4D5FF00004EA
:10503000C4EBC40655F8260008B117F017FD1C2173
:1050400005EB860017F050FE641CE4B2042CEFD38D
:1050500070BD0000F00C0124084949680AE04A6864
:10506000824202D00A68824203D10A7E42F00102E3
:105070000A7649690029F2D1704700002400002413
:10508000704700000148042100F03EBE080C0124D6
:1050900001481C2100F038BE200C01242DE9F84FF6
:1050A0008146DDE90A0A13B9B0F5807F7ED0BAF9EE
:1050B00000604FF0FF350224C6F10006002B06FB0E
:1050C00000F605EB262636B2A9F80060BAF90270A0
:1050D000C7F1000707FB00F705EB27252DB2A9F85C
:1050E0000250BAF90070A1EB070101FB00F104EBDB
:1050F000212109B2A9F80410BAF90270A2EB070243
:1051000002FB00F204EB222000B2A9F806007ED0D8
:105110000A2593FBF5F67042771C00EB800003EB49
:10512000400430B21FF01AF9804638B21FF016F969
:105130005A36009030B21FF011F95A37834638B210
:105140001FF00CF9C4F10A01DDF800C0B9F9003014
:1051500001FB08F601FB0BF100FB04100CFB0466DD
:1051600090FBF5F096FBF5F1B9F90220B9F904C00E
:105170004FEA601B49110BFB03F401FB03F80BFB27
:105180000CF001FB0CF301FB12450BFB028601FB4B
:1051900012070BFB023CB9F9062001FB124401FB8C
:1051A00012010BFB02880BFB023200E022E0BAF88E
:1051B000000000EBA52300EBA42400EBA72500EBE7
:1051C000A12118B2BAF8023024B203EBAC2703EBEA
:1051D000A82C03EBA62603EBA22832B23BB22DB2D9
:1051E00009B20FFA8CF60FFA88F7844224DAA44643
:1051F00023E00CE00020491EA9F80410521EA9F873
:105200000620A9F80000A9F80200BDE8F88FBAF856
:1052100000203244A9F80020BAF802202A44A9F854
:105220000220BAF800201144A9F80410BAF80210BC
:105230000844A9F80600E8E78446A94201DA88464E
:1052400000E0A846C44505DA844201DAA44606E037
:10525000844604E0A94201DA8C4600E0AC46A9F895
:1052600000C0844201DDA44600E08446A94201DD7D
:10527000884600E0A846C44503DD844206DD20469A
:1052800004E0A94201DD084600E02846A9F8040030
:10529000964201DA304600E010469F4201DA394674
:1052A00000E01946884205DA964201DA304606E007
:1052B000104604E09F4201DA384600E01846A9F89B
:1052C0000200964201DD304600E010469F4201DDBB
:1052D000394600E01946884203DD964206DD324633
:1052E00004E09F4201DD3A4600E01A46A9F8062094
:1052F0008BE72DE9FE4F0446B0F90800081AB4F90F
:105300000A50E389511BD4F800B0B3F5807FD4E98B
:10531000093239D0A589002DA56B05FB00F041D0DD
:10532000D4E90B7640114D4306FB00FC07FB00F16E
:10533000681107FB10C506FB001103EBA52902EB62
:10534000A120B4F904104FEA292780460612B94279
:1053500048DD002F46DBB4F90600B04242DD002EE6
:1053600040DB94F8340042073FD5820701FB067208
:1053700004F114001DD455004FF0020A0BEB050197
:10538000524617F06DFC22E0D4E90B6505FB00F7EF
:10539000704306FB117605FB010103EBA60902EB46
:1053A000A100CEE74D43411103EB010902EB65106B
:1053B000C7E702EB42054FF0030A02220BEB05019F
:1053C00017F04EFCE81C584410F8010CA07594F836
:1053D0003400C0071FD04FF4FC60ADF80000A18A74
:1053E000814218D10020BDE8FE8F32B2236939B264
:1053F00000258B4604F11800AA46CDE9010214F0FD
:1054000077FE00905946BDF80000A082DDE9010258
:1054100014F0FCFDDAE7E07C78B1A4F83C9020467B
:10542000A4F83E80A4F84070A4F84260656484F853
:1054300048A0BDE8FE4F00F002B80120D3E72DE9F7
:10544000F04F044690F83C0091B04FF0FF36C1B2E7
:1054500094F83E207029D4F80090D0B207DAB4F95D
:1054600040203546012A00D5002580310DE09029E5
:1054700016DDB4F940200125B4F90430521C9A42DB
:1054800000DB0025A1F27F114942C9B2702888468D
:1054900009DAB4F94210012900D50026803010E065
:1054A0000025FF21F2E790280DDDB4F94210012616
:1054B000B4F90620491C914200DB0026A0F27F10BF
:1054C0004042C7B201E00026FF2794F8341060691B
:1054D0004FF0000B0890DA46A07D4907CDF82CB0BC
:1054E0000E9042D594F848100222606C11FB050121
:1054F00007A8494417F0B4FBA08894F84810626CE0
:1055000010FB01F006FB00210222494404A817F019
:10551000A7FBA18894F84800626C11FB00F310FB14
:10552000059006FB03210222014405A817F098FB11
:1055300094F83400800760D5A28894F84800616C24
:1055400012FB00F210FB050310FB051506FB021110
:1055500048440B442A1801444B4412F801BC11F88A
:10556000010C0B9013F8010C46E0B4F84000B4F9BC
:1055700042202844236901B204F11800814614F046
:10558000B7FD0790B4F84200B4F94010304402B2BD
:10559000484654F8103F14F0ABFD0490608E236829
:1055A000304402B2208E284401B2484614F0A0FDD7
:1055B000059094F82400103C80071ED5B4F84000F4
:1055C000B4F942204034284401B2484614F01EFD8C
:1055D00083466088B4F90010304402B2484614F0A3
:1055E00015FD0B906088304402B234F8400928441D
:1055F00001B2484614F00AFD824694F8340042464F
:105600004546800736D50E98C7F1FF0310FB08FC0E
:105610000B9810FB08F6C8F1FF001BFB00CC1AFB2F
:105620000060CCF30721C0F3072011FB07F6022925
:1056300010FB03614FEA1121A17507D8022803D896
:10564000002011B0BDE8F08F002702E0022800D84A
:10565000FF270E98022800D80022BBF1020F00D8C5
:10566000FF220B98022800D80025BAF1020F03D8B8
:10567000FF2501E0FF20A075DAB1FF2A1BD0DDE98C
:10568000071010F06BFD0390BDB1FF2D17D0DDE9C1
:1056900004012A4610F062FD00903FB1FF2F10D0A8
:1056A0003A460146039810F059FD0090BDF80000FD
:1056B00009E00798E7E70898E5E70598ECE704981C
:1056C000EAE7BDF80C00A0820120BAE72DE9F04717
:1056D0000446B0F908000A27B4F90C100202B4F924
:1056E0000A3091FBF7F51802C4E9092068426B42C1
:1056F00000EB800218B205F1010801EB42061EF032
:105700002DFE8146E84300B21EF028FE8246C5F118
:105710005A0000B21EF022FE0546C8F15A0000B23F
:105720001EF01CFE0146C6F10A0000FB09F36843A7
:1057300001FB06010AFB063291FBF7F192FBF7F041
:1057400049114011C4E90B01A07C14F07DFD94F8CF
:10575000341060F3000184F83410A07C14F065FD6F
:10576000024694F83400A17C042962F3410084F8D5
:10577000340025D0052923D0062921D020F00400AB
:1057800084F83400A0694FF40017E2894FF0FF0C51
:1057900020F0E000A588E68861F30400236807EBA9
:1057A00052012362B1FBF2F165F3942084F816C034
:1057B00066F35F50A163A061208AA082BDE8F087F4
:1057C00040F00400DCE700002DE9F041124C1546E2
:1057D0000E4607461EF048FB80462B4632463946A9
:1057E000204615F0B7F820B1E1690020A06251B160
:1057F00010E02C21204617F077FA4FF00040A0620D
:105800000020BDE8F08140461EF027FBE06108B9AA
:105810000120E0612046F4E7440C012408481421EB
:1058200010B500F071FA15F05BF840B10549016060
:1058300005494160054981600549C16010BDFEE729
:105840002C0C012405A3010885A60108FDA7010869
:10585000D1A2010870B50D4604461021284617F064
:1058600043FA20680078012804D0022807D00428D1
:1058700007D008E0208A2880608A688003E0E0681A
:1058800000E00A20686020684268002A03D02946A8
:10589000BDE87040104770BDFEB5866A0446BEB9CB
:1058A000A08A218AE28A638A0844A0822046D1180D
:1058B000E1820AF078FD060079D020460DF026FA44
:1058C00000223046092113F0DFFE607880076ED495
:1058D000208A10B9608A002869D00025ADF80450EC
:1058E000ADF8085094F83C0000F00F000328304653
:1058F00016D018F0A1FF0746304618F057FE0346B1
:105900003A460C200090B4F9121030460AF0BCF868
:10591000ADF80800304618F09BFEC10712D017E022
:1059200018F01EFF0746304618F0BAFE02463B4606
:1059300003200090B4F9101030460AF0A5F8ADF835
:105940000400E7E7BDF90410002901DDADF80450BB
:10595000810705D4BDF90410002901DAADF804501F
:10596000410705D4BDF90810002901DDADF8085044
:10597000000705D4BDF90800002801DAADF8085089
:1059800002AA01A9204620F080FDBDF908200023CD
:10599000BDF9041030461AF06DFFA08ABDF804204E
:1059A000E18A1044A082BDF808000844E082FEBDF0
:1059B0002DE9FC5F0446806A5FEA000B71D094F821
:1059C0003C0000076DD015F08DFB01904021006870
:1059D000457E584619F0E0FE4FF0000818B9A4F8CB
:1059E0001A80A4F81880584618F018FF82465846C6
:1059F00018F01BFF064694F83C004FF0640900F0D5
:105A00000F000C2802D003284CD09AE0A4F818808C
:105A100056B1B4F91A50002715F064FB01684846E6
:105A2000497EC1F1640122E0618BC5F1640211FB82
:105A300002F191FBF9F06083584618F0B7FD054676
:105A4000584618F0F9FE02462B460C200090B4F997
:105A50001A1058460AF018F80023024660831EE028
:105A600011FB05F27B1992FBF0F21FB215B2002D6B
:105A7000F6D1ADF8007000216A462046A4F81A80DD
:105A800020F003FD41F6FF72BDF900305142584647
:105A90000AF0EEFDBDF800100123084402B2002117
:105AA0004CE09BE0BAF1000FA4F81A800AD0B4F9D8
:105AB0001850002715F016FB00684946407EC0F1DB
:105AC000640022E0218BC5F1640211FB02F191FB1D
:105AD000F9F02083584618F0E3FD0546584618F0C3
